S01700004763634170706C69636174696F6E312E737265635B
S11300000C94D3010C9463040C9480040C94FB01B1
S11300100C94FB010C94FB010C94FB010C94FB016C
S11300200C94FB010C94FB010C94FB010C94FB015C
S11300300C94FB010C94FB010C94FB010C94FB014C
S11300400C94FB010C94FB010C94FB010C94FB013C
S11300500C94FB010C94FB010C94FB010C94FB012C
S11300600C94FB010C94FB013E5149453E00427F38
S1130070400042615149462141454B311814127FD9
S11300801027454545393C4A494930017109050362
S11300903649494936064949291E7C1211127C7F8A
S11300A0494949363E414141227F4141413E7F49D0
S11300B04949417F090909013E4149497A7F0808B4
S11300C0087F00417F41002040413F017F08142206
S11300D0417F404040407F020C027F7F0408107F34
S11300E03E4141413E7F090909063E4151215E7F5F
S11300F009192946264949493201017F01013F4036
S113010040403F1F2040201F3F4038403F631408B9
S11301101463070870080761514945430000000053
S113012007FFF8001FE7FE003F007E003E003F008F
S11301303C3E1F00387F8F0030FFCF0031FFC700E7
S113014031FFE70033FFE70033FFE70033FFE70049
S113015031E3C70031E3C70038E38F003C631F007D
S11301603E223F003F637F003FE3FF003FE3FF0089
S11301703FE3FE001FFFFE0001FFF8000000000047
S11301800000000000000000000000007FFFFFE00E
S11301907FFFFFE03FFFFFE03FF9FFC01FF9FF8053
S11301A01FFFFF800FFFFF000FF9FF0007F9FE009C
S11301B007F9FE0003F9FC0001F9F80001F9F80061
S11301C000F9F00000F9F000007FE000007FE0009B
S11301D0003FC000001F8000001F8000000F0000CF
S11301E0000F0000000000000000000000000000FC
S11301F0000003000F003F003F000F000300000059
S1130200000000000000600078007E007E0078009E
S113021060000000000000000000000000078000F3
S11302200007E000000FE000000FF0000E0FF800E0
S11302300E0FF8001F0FF8001F0BF8001FBC000082
S11302401FBC00001FBE00001FBC00001F9D00005B
S11302501F038000000FC000000FE000000FE0004B
S1130260001FE000001FE000003FC000001F8000EE
S1130270000000000000000000000000000000007A
S1130280000000000000000003C0000007C00000E0
S11302901FC078001FC0FC003FC1FE003FC3FE002A
S11302A03FC9FE003FBEFE000FFEFE00003E1E00E2
S11302B0003C040000000000003E000000FF0000BD
S11302C003FF000003FF000003FF000000FF000025
S11302D0000000000000000000000000000000001A
S11302E00000000000FC000001FE000003FC000010
S11302F003FC000003F8000003F8000001F800000C
S113030000E07C00005CFC00001EFC00003EFC00E1
S1130310001EFC00001EFC000FE87C000FF87C00AF
S11303200FF838000FF8380007F8000003F8000051
S113033003F0000000F000000000000000000000D6
S1130340000000000000000000000000007F8000AA
S1130350007FE000007FE000007FE000007F80007D
S1130360003E000000000000101E00003C3E0000A3
S11303703FBFF8003FBEFE003FC9FE003FE1FE0064
S11303803FC1FE001F81FC000F01FC000001F000D2
S11303900001E00000000000000000000000000078
S11303A000000000830611241FBECFEFD8E0DEBF9B
S11303B0CDBF11E0A0E0B1E0E2ECF3E102C00590B2
S11303C00D92AC37B107D9F725E0ACE7B1E001C035
S11303D01D92A039B207E1F711E0C3EDD1E004C0EA
S11303E02197FE010E948209C23DD107C9F70E94EC
S11303F0F2050C94DF090C9400006623B4F1403438
S1130400A0F52223C9F0242F26952695269570E081
S113041030E8239F600D711D1124FC01E60FF71FC6
S1130420477081E090E002C0880F991F4A95E2F777
S11304309081892B80830895242F269526952695CF
S113044070E030E8239F600D711D1124FC01E60F5C
S1130450F71F477081E090E002C0880F991F4A950A
S1130460E2F7809590818923808308952F923F92AB
S11304704F925F926F927F928F929F92AF92BF92B0
S1130480CF92DF92EF92FF920F931F93CF93DF935C
S1130490E22FF0E037963F011AF437E0630E711C47
S11304A0759467947594679475946794442309F4D8
S11304B045C0202E422E5B016C01342E3E0C812C53
S11304C0912C772400E810E0442091F1689CE0012D
S11304D0699CD00D789CD00D1124522CF12C8F2DB9
S11304E0869586958695FE01E80FF11DEA0DFB1DA4
S11304F084919F2D9770980102C0359527959A9500
S1130500E2F7E82FF0E0E223F323EF2B39F021E0C8
S11305104E2D652DC6010E94FD0106C020E04E2D22
S1130520652DC6010E94FD01F39453944F10D7CF5B
S11305308FEF881A980AE394E310C6CFDF91CF9126
S11305401F910F91FF90EF90DF90CF90BF90AF90ED
S11305509F908F907F906F905F904F903F902F90DF
S113056008956623D4F04034C0F4242F26952695AC
S1130570269570E030E8239F600D711D1124FC0165
S1130580E60FF71F477081E090E002C0880F991FC3
S11305904A95E2F79081892B80830895FF920F9307
S11305A01F93CF93DF93222369F0F42EC62F8C017F
S11305B0D22FD60F4F2D6C2FC8010E94B102CF5FEE
S11305C0CD13F8CFDF91CF911F910F91FF90089534
S11305D0FC019C5F1192E817F907E1F70895CF93A6
S11305E0DF93EC019C5F0E949E06CE010E94E8020C
S11305F0FE01EE5FFB4F1082CD5FDB4F1882DF916F
S1130600CF910895BC019C5F0E940E0708957F92CC
S11306108F929F92AF92BF92CF92DF92EF92FF920E
S11306200F931F93CF93DF934C0190ED920F9A3069
S113063068F08FEB820F8A3118F499EC920F06C0A0
S11306408FE9820F8A31B8F599EA920FC42E892F67
S113065090E05C01AA0CBB1CAA0CBB1C8A0D9B1D60
S11306609C0128593F4F59010F2EF5E07F2EF02DA4
S1130670760ED62EF501E4901C2DC6E0D0E0F12CC8
S113068097010C2E02C0359527950A94E2F720FFB6
S113069006C0202F412F6D2DC4010E94FD0121971A
S11306A01F5FCF3F2FEFD20759F73FEFA31AB30ACB
S11306B0D394D710DFCFDF91CF911F910F91FF908B
S11306C0EF90DF90CF90BF90AF909F908F907F90EE
S11306D00895CF92DF92EF92FF920F931F93CF93DF
S11306E0DF936C01C62FD42FF901102F2081222310
S11306F081F07F018FEFE81AF80A012F4D2F6C2F3C
S1130700C6010E940703CA5FF70121917F012111ED
S1130710F4CFDF91CF911F910F91FF90EF90DF9075
S1130720CF900895DF92EF92FF920F931F93CF9390
S1130730DF93CDB7DEB727970FB6F894DEBF0FBEB1
S1130740CDBF7C01CB01142FD22E4AE0BE016F5FD6
S11307507F4F0E9488099E012F5F3F4F4D2D612FCF
S1130760C7010E94690327960FB6F894DEBF0FBE37
S1130770CDBFDF91CF911F910F91FF90EF90DF904C
S11307800895CF92DF92EF92FF920F931F93CF932E
S1130790DF93CDB7DEB72B970FB6F894DEBF0FBE4D
S11307A0CDBF6C01CB01BA01122FF02E0E2D2AE021
S11307B0AE014F5F5F4F0E9493099E012F5F3F4F31
S11307C04F2D612FC6010E9469032B960FB6F89432
S11307D0DEBF0FBECDBFDF91CF911F910F91FF9070
S11307E0EF90DF90CF9008950895FC0160831092FC
S11307F0B90080E28093B8000895DC0184EA809314
S1130800BC00ECEBF0E090819923ECF79091B900F7
S1130810987F11969C931197983011F09031B9F408
S11308208C918093BB0084E88093BC00ECEBF0E0F7
S113083090819923ECF79091B900987F11969C933D
S1130840983139F081E0903429F480E0089581E012
S1130850089580E00895DC016093BB0084E88093F0
S1130860BC00ECEBF0E090819923ECF79091B90097
S1130870987F11969C9381E0983209F480E0089562
S113088084E98093BC00ECEBF0E0808184FDFDCF33
S1130890089580E480937C0087E880937A008AB18D
S11308A0837F8AB98BB18C608BB92098289AE9E64A
S11308B0F0E080818A60808380818A7F808383E006
S11308C08DBB789408951F920F920FB60F92112446
S11308D08F939F938FE59AEE0197F1F700C0000084
S11308E04A9907C080917D01882319F08A5080932A
S11308F07D019F918F910F900FBE0F901F901895BF
S11309001F920F920FB60F9211248F939F938FE52E
S11309109AEE0197F1F700C000004B9907C080914F
S11309207D01843619F0865F80937D019F918F91BC
S11309300F900FBE0F901F901895ECE7F0E0908198
S1130940987F8770892B8083EAE7F0E08081806458
S11309508083808186FDFDCF80917800909179001D
S11309600895CF92DF92EF92FF920F931F93CF934C
S1130970DF93D82EC62EE62EF12CC0E0D0E000E0A6
S113098010E08D2D0E949D04080F191F8FE097E23F
S11309900197F1F700C000002196EC16FD068CF7D4
S11309A06C2D70E0C8010E946E09CB01DF91CF91DC
S11309B01F910F91FF90EF90DF90CF900895809159
S11309C07F018F5F843019F080937F010895109226
S11309D07F01089583B1982F917080FF06C09130F4
S11309E031F481E080937C01089510927C01089594
S11309F0EF920F938CE891E00E94E80201E02FE06F
S1130A0031E045E365E08CE891E00E94690320E869
S1130A1041E360E08CE891E00E94CE0240918201C3
S1130A20509183016091840170918501EE24E394D7
S1130A3005E327E38CE891E00E94C10301E02BE683
S1130A4043E36BE48CE891E00E940703609180012A
S1130A507091810125E344E68CE891E00E949203C1
S1130A6023E643E363E78CE891E00E940703809167
S1130A707E01813031F008F48FC0823009F46EC0F9
S1130A80AAC00E94DF04E0917F01F0E0EE0FFF1F97
S1130A90E050FF4F608171810F2EF6E1EF2EF02DB3
S1130AA003E029E149E18CE891E00E94360201E08B
S1130AB028E031E040E262E28CE891E00E946903C0
S1130AC080917C01882359F0813091F424E131E054
S1130AD040E26AE58CE891E00E94690309C001E004
S1130AE029E131E040E269E58CE891E00E94690384
S1130AF002E020E231E04BE067E08CE891E00E9404
S1130B00690340917D0150E060E070E0EE24E394DD
S1130B100DE020E58CE891E00E94C1030F2EFCE07B
S1130B20EF2EF02D09E629E049E062E072E08CE85E
S1130B3091E00E9436020CE329E049E060EF71E0A5
S1130B408CE891E00E94360201E026E231E040E0C8
S1130B5067E08CE891E00E9469033DC00F2EFFE03E
S1130B60EF2EF02D01E02CE14CE160E871E08CE81F
S1130B7091E00E9436022AE231E04CE162E38CE823
S1130B8091E00E94690324E331E045E061E08CE8F0
S1130B9091E00E9469031FC001E02AE431E04CE1C6
S1130BA063E38CE891E00E9469030F2EFFE0EF2ECF
S1130BB0F02D09E029E149E16CE171E08CE891E074
S1130BC00E94360201E024E531E040E061E08CE877
S1130BD091E00E9469038CE891E00E9402030F9166
S1130BE0EF9008950E944904C8E0D1E00F2EFCE67E
S1130BF0EF2EFFE6FF2EF02D07E710E0CC24C39480
S1130C006894DD24D1F80E94EA046AE083E00E943B
S1130C10B10488539F4F90938B0180938A01BC0148
S1130C2080E090E00E94730820E030E040EA50E465
S1130C300E94010920E030EC4FE754E40E94CB0706
S1130C406093860170938701809388019093890152
S1130C502091800130918101293231051CF0D0921C
S1130C607E0109C020917D01211103C010927E01F3
S1130C7006C0C0927E0120917D012A3128F4F982B8
S1130C80E8821B830A831EC0233348F427E0E5E788
S1130C90F1E0DE0101900D922A95E1F713C02C34A6
S1130CA048F425E0EAE6F1E0DE0101900D922A9590
S1130CB0E1F708C026E0EFE6F1E0DE0101900D92D5
S1130CC02A95E1F720E030E048EC52E40E94010963
S1130CD00E9444086093820170938301809384018D
S1130CE0909385010E94730823E333E948E853E4B1
S1130CF00E945E070E943D08709381016093800109
S1130D000E94F80480CF8CE891E00E94EF020895DD
S1130D101F93CF93DF93EC01162F0E94FD0360E035
S1130D20CE010E942B04612FCE010E942B04CE0120
S1130D300E944004DF91CF911F910895CF93DF93D8
S1130D40EC010E94F40368E7CE010E94F5036EEA09
S1130D50CE010E94880665EDCE010E94880660E8F7
S1130D60CE010E94880668EACE010E9488066FE3DD
S1130D70CE010E94880663EDCE010E94880660E0E1
S1130D80CE010E94880660E4CE010E9488066DE8C8
S1130D90CE010E94880664E1CE010E94880660E2CA
S1130DA0CE010E94880660E0CE010E94880661EAB6
S1130DB0CE010E94880660ECCE010E9488066AED8E
S1130DC0CE010E94880662E1CE010E94880661E895
S1130DD0CE010E9488066FECCE010E94880669ED60
S1130DE0CE010E94880661EFCE010E9488066BED59
S1130DF0CE010E94880660E4CE010E94880664EA5F
S1130E00CE010E94880666EACE010E9488066FEA37
S1130E10CE010E948806DF91CF910895CF92DF9290
S1130E20EF92FF920F931F93CF93DF93082F192F05
S1130E307B0161E20E94880660E0802F912F0E946E
S1130E4088066FE7802F912F0E94880662E2802F28
S1130E50912F0E94880660E0802F912F0E948806BF
S1130E6067E0802F912F0E948806E7018CEFF81A23
S1130E70802F912F0E94FD0360E4802F912F0E9408
S1130E802B046E0180E1C80ED11C6991802F912F33
S1130E900E942B04CC15DD05C1F7802F912F0E94F1
S1130EA04004E601EC14FD0419F7DF91CF911F9182
S1130EB00F91FF90EF90DF90CF9008955058BB278B
S1130EC0AA270E9476070C94C7080E94B90838F034
S1130ED00E94C00820F039F49F3F19F426F40C94C2
S1130EE0B6080EF4E095E7FB0C94B008E92F0E94D5
S1130EF0D80858F3BA17620773078407950720F0D8
S1130F0079F4A6F50C94FA080EF4E0950B2EBA2F9A
S1130F10A02D0B01B90190010C01CA01A0011124FB
S1130F20FF27591B99F0593F50F4503E68F11A16A7
S1130F30F040A22F232F342F4427585FF3CF469538
S1130F4037952795A795F0405395C9F77EF41F165A
S1130F50BA0B620B730B840BBAF09150A1F0FF0F24
S1130F60BB1F661F771F881FC2F70EC0BA0F621F10
S1130F70731F841F48F4879577956795B795F79500
S1130F809E3F08F0B0CF9395880F08F09927EE0F95
S1130F909795879508950E94DF070C94C7080E94CF
S1130FA0C00858F00E94B90840F029F45F3F29F0C6
S1130FB00C94B00851110C94FB080C94B6080E94D0
S1130FC0D80868F39923B1F3552391F3951B550B76
S1130FD0BB27AA2762177307840738F09F5F5F4F08
S1130FE0220F331F441FAA1FA9F335D00E2E3AF047
S1130FF0E0E832D091505040E695001CCAF72BD05F
S1131000FE2F29D0660F771F881FBB1F26173707AF
S11310104807AB07B0E809F0BB0B802DBF01FF27E1
S113102093585F4F3AF09E3F510578F00C94B00806
S11310300C94FB085F3FE4F3983ED4F386957795D0
S11310406795B795F7959F5FC9F7880F911D96959A
S1131050879597F90895E1E0660F771F881FBB1FF6
S1131060621773078407BA0720F0621B730B840BA3
S1131070BA0BEE1F88F7E09508950E94440868941F
S1131080B1110C94FB0808950E94E00888F09F5762
S113109098F0B92F9927B751B0F0E1F0660F771F98
S11310A0881F991F1AF0BA95C9F714C0B13091F08E
S11310B00E94FA08B1E008950C94FA08672F782F7B
S11310C08827B85F39F0B93FCCF386957795679553
S11310D0B395D9F73EF490958095709561957F4FBF
S11310E08F4F9F4F0895E89409C097FB3EF4909565
S11310F08095709561957F4F8F4F9F4F9923A9F0ED
S1131100F92F96E9BB279395F6958795779567957B
S1131110B795F111F8CFFAF4BB0F11F460FF1BC0BF
S11311206F5F7F4F8F4F9F4F16C0882311F096E952
S113113011C0772321F09EE8872F762F05C0662300
S113114071F096E8862F70E060E02AF09A95660FB9
S1131150771F881FDAF7880F9695879597F9089572
S113116097F99F6780E870E060E008959FEF80EC56
S1131170089500240A9416161706180609060895F9
S113118000240A9412161306140605060895092E5F
S11311900394000C11F4882352F0BB0F40F4BF2BCE
S11311A011F460FF04C06F5F7F4F8F4F9F4F08950E
S11311B057FD9058440F551F59F05F3F71F0479504
S11311C0880F97FB991F61F09F3F79F087950895E9
S11311D0121613061406551FF2CF4695F1DF08C008
S11311E0161617061806991FF1CF86957105610525
S11311F008940895E894BB2766277727CB0197F9CD
S113120008950E9414090C94C7080E94B90838F084
S11312100E94C00820F0952311F00C94B0080C949F
S1131220B60811240C94FB080E94D80870F3959F0B
S1131230C1F3950F50E0551F629FF001729FBB27C9
S1131240F00DB11D639FAA27F00DB11DAA1F649F65
S11312506627B00DA11D661F829F2227B00DA11D18
S1131260621F739FB00DA11D621F839FA00D611D9E
S1131270221F749F3327A00D611D231F849F600DBF
S1131280211D822F762F6A2F11249F5750409AF0E8
S1131290F1F088234AF0EE0FFF1FBB1F661F771F74
S11312A0881F91505040A9F79E3F510580F00C943F
S11312B0B0080C94FB085F3FE4F3983ED4F38695A2
S11312C077956795B795F795E7959F5FC1F7FE2BDF
S11312D0880F911D9695879597F90895AA1BBB1BB6
S11312E051E107C0AA1FBB1FA617B70710F0A61B22
S11312F0B70B881F991F5A95A9F780959095BC0143
S1131300CD010895EE0FFF1F0590F491E02D09948F
S1131310BB274A3031F4992322F4BDE2909581959C
S11313209F4F0C94B609BB27FA01A62F62177105CB
S113133081059105330B30FB66F0AA27660F771FF2
S1131340881F991FAA1FA21710F0A21B639538507B
S1131350A9F7A05DAA3308F0A95DA19336F7B111EE
S1131360B1931082CA010C94CF09BB27FB01552706
S1131370AA27880F991FAA1FA41710F0A41B8395EE
S11313805051B9F7A05DAA3308F0A95DA193009765
S113139079F7B111B1931192CB010C94CF09DC010F
S11313A0FC01672F71917723E1F7329704C07C9198
S11313B06D9370836291AE17BF07C8F30895F894D4
S10513C0FFCF59
S11313C24003DC02780214027374617274000054E4
S11313D2454D50006175746F006D616E75616C00EE
S11313E253504545440050524D0048696768207483
S11313F2656D700072756E6E696E67206174206629
S1131402756C6C20706F77657200506F776572200F
S11314126F666600526967687420627574746F6ED1
S113142220746F2073746172740066617374007443
S10F14327572626F006D656469756D0071
S9030000FC
